{"contracts/WonderCard.sol":{"MemoryCardGame":{"abi":[{"inputs":[{"internalType":"uint8[]","name":"_cardTypes","type":"uint8[]"}],"stateMutability":"nonpayable","type":"constructor"},{"anonymous":false,"inputs":[{"indexed":false,"internalType":"address","name":"player","type":"address"},{"indexed":false,"internalType":"uint8","name":"pos","type":"uint8"},{"indexed":false,"internalType":"uint8","name":"cardType","type":"uint8"}],"name":"CardRevealed","type":"event"},{"anonymous":false,"inputs":[{"indexed":false,"internalType":"address","name":"player","type":"address"},{"indexed":false,"internalType":"uint8","name":"pos1","type":"uint8"},{"indexed":false,"internalType":"uint8","name":"pos2","type":"uint8"}],"name":"MatchFound","type":"event"},{"anonymous":false,"inputs":[{"indexed":false,"internalType":"address","name":"player","type":"address"},{"indexed":false,"internalType":"uint8","name":"pos1","type":"uint8"},{"indexed":false,"internalType":"uint8","name":"pos2","type":"uint8"}],"name":"NoMatch","type":"event"},{"inputs":[{"internalType":"uint8","name":"","type":"uint8"}],"name":"cardTypes","outputs":[{"internalType":"uint8","name":"","type":"uint8"}],"stateMutability":"view","type":"function"},{"inputs":[{"internalType":"uint8","name":"pos1","type":"uint8"},{"internalType":"uint8","name":"pos2","type":"uint8"}],"name":"flipCards","outputs":[],"stateMutability":"nonpayable","type":"function"},{"inputs":[{"internalType":"address","name":"player","type":"address"}],"name":"getScore","outputs":[{"internalType":"uint256","name":"","type":"uint256"}],"stateMutability":"view","type":"function"},{"inputs":[{"internalType":"uint8","name":"pos","type":"uint8"}],"name":"isMatched","outputs":[{"internalType":"bool","name":"","type":"bool"}],"stateMutability":"view","type":"function"},{"inputs":[{"internalType":"uint8","name":"","type":"uint8"}],"name":"matchedCards","outputs":[{"internalType":"bool","name":"","type":"bool"}],"stateMutability":"view","type":"function"},{"inputs":[],"name":"owner","outputs":[{"internalType":"address","name":"","type":"address"}],"stateMutability":"view","type":"function"},{"inputs":[{"internalType":"address","name":"","type":"address"}],"name":"playerScores","outputs":[{"internalType":"uint256","name":"","type":"uint256"}],"stateMutability":"view","type":"function"},{"inputs":[],"name":"totalCards","outputs":[{"internalType":"uint8","name":"","type":"uint8"}],"stateMutability":"view","type":"function"}],"devdoc":{"kind":"dev","methods":{},"version":1},"evm":{"bytecode":{"linkReferences":{},"object":"60806040526000805460ff60a01b1916600160a21b17905534801561002357600080fd5b506040516107683803806107688339810160408190526100429161013c565b6000548151600160a01b90910460ff16146100965760405162461bcd60e51b815260206004820152601060248201526f125b9d985b1a590818d85c99081cd95d60821b604482015260640160405180910390fd5b600080546001600160a01b031916331781555b60005460ff600160a01b9091048116908216101561010957818160ff16815181106100d6576100d661020b565b60209081029190910181015160ff838116600090815260019384905260409020805460ff191691909216179055016100a9565b5050610221565b634e487b7160e01b600052604160045260246000fd5b805160ff8116811461013757600080fd5b919050565b60006020828403121561014e57600080fd5b81516001600160401b0381111561016457600080fd5b8201601f8101841361017557600080fd5b80516001600160401b0381111561018e5761018e610110565b604051600582901b90603f8201601f191681016001600160401b03811182821017156101bc576101bc610110565b6040529182526020818401810192908101878411156101da57600080fd5b6020850194505b83851015610200576101f285610126565b8152602094850194016101e1565b509695505050505050565b634e487b7160e01b600052603260045260246000fd5b610538806102306000396000f3fe608060405234801561001057600080fd5b50600436106100885760003560e01c80639d1ad17f1161005b5780639d1ad17f14610144578063a601eb5414610159578063d47875d01461018e578063e994c15d146101b757600080fd5b80631798f7f21461008d5780631c4aedcb146100c557806362550ae1146100eb5780638da5cb5b14610119575b600080fd5b6100b061009b36600461045d565b60026020526000908152604090205460ff1681565b60405190151581526020015b60405180910390f35b6100b06100d336600461045d565b60ff9081166000908152600260205260409020541690565b61010b6100f936600461047f565b60036020526000908152604090205481565b6040519081526020016100bc565b60005461012c906001600160a01b031681565b6040516001600160a01b0390911681526020016100bc565b6101576101523660046104a8565b6101cb565b005b61017c61016736600461045d565b60016020526000908152604090205460ff1681565b60405160ff90911681526020016100bc565b61010b61019c36600461047f565b6001600160a01b031660009081526003602052604090205490565b60005461017c90600160a01b900460ff1681565b8060ff168260ff16036102255760405162461bcd60e51b815260206004820152601560248201527f43616e6e6f7420666c69702073616d652063617264000000000000000000000060448201526064015b60405180910390fd5b60ff80831660009081526002602052604090205416158015610259575060ff80821660009081526002602052604090205416155b6102a55760405162461bcd60e51b815260206004820152601460248201527f4361726420616c7265616479206d617463686564000000000000000000000000604482015260640161021c565b60ff82811660008181526001602090815260408083205486861684529281902054815133815292830194909452918416918101829052909291909116907fe1299f54cce9bbbb7b050a7a2e071f3272e75f57d041e1cfb8cc88969634cf069060600160405180910390a16040805133815260ff858116602083015283168183015290517fe1299f54cce9bbbb7b050a7a2e071f3272e75f57d041e1cfb8cc88969634cf069181900360600190a18060ff168260ff16036103fd5760ff84811660009081526002602090815260408083208054600160ff1991821681179092559488168452818420805490951681179094553383526003909152812080549091906103b09084906104db565b90915550506040805133815260ff868116602083015285168183015290517f6ab153c624dd57c882faa076a2e92b9bf6ab9fe4dd45ab9b4fecebdfb705fbfa9181900360600190a1610441565b6040805133815260ff868116602083015285168183015290517fac88aca342ab714852637e72799de8fc6cbe9636b0742f69e27f9628614d44e79181900360600190a15b50505050565b803560ff8116811461045857600080fd5b919050565b60006020828403121561046f57600080fd5b61047882610447565b9392505050565b60006020828403121561049157600080fd5b81356001600160a01b038116811461047857600080fd5b600080604083850312156104bb57600080fd5b6104c483610447565b91506104d260208401610447565b90509250929050565b808201808211156104fc57634e487b7160e01b600052601160045260246000fd5b9291505056fea26469706673582212204f21bfac28cffd176ca38fe591b0522962008a06647345f97583bd901bfc42b064736f6c634300081d0033","opcodes":"PUSH1 0x80 PUSH1 0x40 MSTORE PUSH1 0x0 DUP1 SLOAD PUSH1 0xFF PUSH1 0xA0 SHL NOT AND PUSH1 0x1 PUSH1 0xA2 SHL OR SWAP1 SSTORE CALLVALUE DUP1 ISZERO PUSH2 0x23 JUMPI PUSH1 0x0 DUP1 REVERT JUMPDEST POP PUSH1 0x40 MLOAD PUSH2 0x768 CODESIZE SUB DUP1 PUSH2 0x768 DUP4 CODECOPY DUP2 ADD PUSH1 0x40 DUP2 SWAP1 MSTORE PUSH2 0x42 SWAP2 PUSH2 0x13C JUMP JUMPDEST PUSH1 0x0 SLOAD DUP2 MLOAD PUSH1 0x1 PUSH1 0xA0 SHL SWAP1 SWAP2 DIV PUSH1 0xFF AND EQ PUSH2 0x96 JUMPI PUSH1 0x40 MLOAD PUSH3 0x461BCD PUSH1 0xE5 SHL DUP2 MSTORE PUSH1 0x20 PUSH1 0x4 DUP3 ADD MSTORE PUSH1 0x10 PUSH1 0x24 DUP3 ADD MSTORE PUSH16 0x125B9D985B1A590818D85C99081CD95D PUSH1 0x82 SHL PUSH1 0x44 DUP3 ADD MSTORE PUSH1 0x64 ADD PUSH1 0x40 MLOAD DUP1 SWAP2 SUB SWAP1 REVERT JUMPDEST PUSH1 0x0 DUP1 SLOAD PUSH1 0x1 PUSH1 0x1 PUSH1 0xA0 SHL SUB NOT AND CALLER OR DUP2 SSTORE JUMPDEST PUSH1 0x0 SLOAD PUSH1 0xFF PUSH1 0x1 PUSH1 0xA0 SHL SWAP1 SWAP2 DIV DUP2 AND SWAP1 DUP3 AND LT ISZERO PUSH2 0x109 JUMPI DUP2 DUP2 PUSH1 0xFF AND DUP2 MLOAD DUP2 LT PUSH2 0xD6 JUMPI PUSH2 0xD6 PUSH2 0x20B JUMP JUMPDEST PUSH1 0x20 SWAP1 DUP2 MUL SWAP2 SWAP1 SWAP2 ADD DUP2 ADD MLOAD PUSH1 0xFF DUP4 DUP2 AND PUSH1 0x0 SWAP1 DUP2 MSTORE PUSH1 0x1 SWAP4 DUP5 SWAP1 MSTORE PUSH1 0x40 SWAP1 KECCAK256 DUP1 SLOAD PUSH1 0xFF NOT AND SWAP2 SWAP1 SWAP3 AND OR SWAP1 SSTORE ADD PUSH2 0xA9 JUMP JUMPDEST POP POP PUSH2 0x221 JUMP JUMPDEST PUSH4 0x4E487B71 PUSH1 0xE0 SHL PUSH1 0x0 MSTORE PUSH1 0x41 PUSH1 0x4 MSTORE PUSH1 0x24 PUSH1 0x0 REVERT JUMPDEST DUP1 MLOAD PUSH1 0xFF DUP2 AND DUP2 EQ PUSH2 0x137 JUMPI PUSH1 0x0 DUP1 REVERT JUMPDEST SWAP2 SWAP1 POP JUMP JUMPDEST PUSH1 0x0 PUSH1 0x20 DUP3 DUP5 SUB SLT ISZERO PUSH2 0x14E JUMPI PUSH1 0x0 DUP1 REVERT JUMPDEST DUP2 MLOAD PUSH1 0x1 PUSH1 0x1 PUSH1 0x40 SHL SUB DUP2 GT ISZERO PUSH2 0x164 JUMPI PUSH1 0x0 DUP1 REVERT JUMPDEST DUP3 ADD PUSH1 0x1F DUP2 ADD DUP5 SGT PUSH2 0x175 JUMPI PUSH1 0x0 DUP1 REVERT JUMPDEST DUP1 MLOAD PUSH1 0x1 PUSH1 0x1 PUSH1 0x40 SHL SUB DUP2 GT ISZERO PUSH2 0x18E JUMPI PUSH2 0x18E PUSH2 0x110 JUMP JUMPDEST PUSH1 0x40 MLOAD PUSH1 0x5 DUP3 SWAP1 SHL SWAP1 PUSH1 0x3F DUP3 ADD PUSH1 0x1F NOT AND DUP2 ADD PUSH1 0x1 PUSH1 0x1 PUSH1 0x40 SHL SUB DUP2 GT DUP3 DUP3 LT OR ISZERO PUSH2 0x1BC JUMPI PUSH2 0x1BC PUSH2 0x110 JUMP JUMPDEST PUSH1 0x40 MSTORE SWAP2 DUP3 MSTORE PUSH1 0x20 DUP2 DUP5 ADD DUP2 ADD SWAP3 SWAP1 DUP2 ADD DUP8 DUP5 GT ISZERO PUSH2 0x1DA JUMPI PUSH1 0x0 DUP1 REVERT JUMPDEST PUSH1 0x20 DUP6 ADD SWAP5 POP JUMPDEST DUP4 DUP6 LT ISZERO PUSH2 0x200 JUMPI PUSH2 0x1F2 DUP6 PUSH2 0x126 JUMP JUMPDEST DUP2 MSTORE PUSH1 0x20 SWAP5 DUP6 ADD SWAP5 ADD PUSH2 0x1E1 JUMP JUMPDEST POP SWAP7 SWAP6 POP POP POP POP POP POP JUMP JUMPDEST PUSH4 0x4E487B71 PUSH1 0xE0 SHL PUSH1 0x0 MSTORE PUSH1 0x32 PUSH1 0x4 MSTORE PUSH1 0x24 PUSH1 0x0 REVERT JUMPDEST PUSH2 0x538 DUP1 PUSH2 0x230 PUSH1 0x0 CODECOPY PUSH1 0x0 RETURN INVALID PUSH1 0x80 PUSH1 0x40 MSTORE CALLVALUE DUP1 ISZERO PUSH2 0x10 JUMPI PUSH1 0x0 DUP1 REVERT JUMPDEST POP PUSH1 0x4 CALLDATASIZE LT PUSH2 0x88 JUMPI PUSH1 0x0 CALLDATALOAD PUSH1 0xE0 SHR DUP1 PUSH4 0x9D1AD17F GT PUSH2 0x5B JUMPI DUP1 PUSH4 0x9D1AD17F EQ PUSH2 0x144 JUMPI DUP1 PUSH4 0xA601EB54 EQ PUSH2 0x159 JUMPI DUP1 PUSH4 0xD47875D0 EQ PUSH2 0x18E JUMPI DUP1 PUSH4 0xE994C15D EQ PUSH2 0x1B7 JUMPI PUSH1 0x0 DUP1 REVERT JUMPDEST DUP1 PUSH4 0x1798F7F2 EQ PUSH2 0x8D JUMPI DUP1 PUSH4 0x1C4AEDCB EQ PUSH2 0xC5 JUMPI DUP1 PUSH4 0x62550AE1 EQ PUSH2 0xEB JUMPI DUP1 PUSH4 0x8DA5CB5B EQ PUSH2 0x119 JUMPI JUMPDEST PUSH1 0x0 DUP1 REVERT JUMPDEST PUSH2 0xB0 PUSH2 0x9B CALLDATASIZE PUSH1 0x4 PUSH2 0x45D JUMP JUMPDEST PUSH1 0x2 PUSH1 0x20 MSTORE PUSH1 0x0 SWAP1 DUP2 MSTORE PUSH1 0x40 SWAP1 KECCAK256 SLOAD PUSH1 0xFF AND DUP2 JUMP JUMPDEST PUSH1 0x40 MLOAD SWAP1 ISZERO ISZERO DUP2 MSTORE PUSH1 0x20 ADD JUMPDEST PUSH1 0x40 MLOAD DUP1 SWAP2 SUB SWAP1 RETURN JUMPDEST PUSH2 0xB0 PUSH2 0xD3 CALLDATASIZE PUSH1 0x4 PUSH2 0x45D JUMP JUMPDEST PUSH1 0xFF SWAP1 DUP2 AND PUSH1 0x0 SWAP1 DUP2 MSTORE PUSH1 0x2 PUSH1 0x20 MSTORE PUSH1 0x40 SWAP1 KECCAK256 SLOAD AND SWAP1 JUMP JUMPDEST PUSH2 0x10B PUSH2 0xF9 CALLDATASIZE PUSH1 0x4 PUSH2 0x47F JUMP JUMPDEST PUSH1 0x3 PUSH1 0x20 MSTORE PUSH1 0x0 SWAP1 DUP2 MSTORE PUSH1 0x40 SWAP1 KECCAK256 SLOAD DUP2 JUMP JUMPDEST PUSH1 0x40 MLOAD SWAP1 DUP2 MSTORE PUSH1 0x20 ADD PUSH2 0xBC JUMP JUMPDEST PUSH1 0x0 SLOAD PUSH2 0x12C SWAP1 PUSH1 0x1 PUSH1 0x1 PUSH1 0xA0 SHL SUB AND DUP2 JUMP JUMPDEST PUSH1 0x40 MLOAD PUSH1 0x1 PUSH1 0x1 PUSH1 0xA0 SHL SUB SWAP1 SWAP2 AND DUP2 MSTORE PUSH1 0x20 ADD PUSH2 0xBC JUMP JUMPDEST PUSH2 0x157 PUSH2 0x152 CALLDATASIZE PUSH1 0x4 PUSH2 0x4A8 JUMP JUMPDEST PUSH2 0x1CB JUMP JUMPDEST STOP JUMPDEST PUSH2 0x17C PUSH2 0x167 CALLDATASIZE PUSH1 0x4 PUSH2 0x45D JUMP JUMPDEST PUSH1 0x1 PUSH1 0x20 MSTORE PUSH1 0x0 SWAP1 DUP2 MSTORE PUSH1 0x40 SWAP1 KECCAK256 SLOAD PUSH1 0xFF AND DUP2 JUMP JUMPDEST PUSH1 0x40 MLOAD PUSH1 0xFF SWAP1 SWAP2 AND DUP2 MSTORE PUSH1 0x20 ADD PUSH2 0xBC JUMP JUMPDEST PUSH2 0x10B PUSH2 0x19C CALLDATASIZE PUSH1 0x4 PUSH2 0x47F JUMP JUMPDEST PUSH1 0x1 PUSH1 0x1 PUSH1 0xA0 SHL SUB AND PUSH1 0x0 SWAP1 DUP2 MSTORE PUSH1 0x3 PUSH1 0x20 MSTORE PUSH1 0x40 SWAP1 KECCAK256 SLOAD SWAP1 JUMP JUMPDEST PUSH1 0x0 SLOAD PUSH2 0x17C SWAP1 PUSH1 0x1 PUSH1 0xA0 SHL SWAP1 DIV PUSH1 0xFF AND DUP2 JUMP JUMPDEST DUP1 PUSH1 0xFF AND DUP3 PUSH1 0xFF AND SUB PUSH2 0x225 JUMPI PUSH1 0x40 MLOAD PUSH3 0x461BCD PUSH1 0xE5 SHL DUP2 MSTORE PUSH1 0x20 PUSH1 0x4 DUP3 ADD MSTORE PUSH1 0x15 PUSH1 0x24 DUP3 ADD MSTORE PUSH32 0x43616E6E6F7420666C69702073616D6520636172640000000000000000000000 PUSH1 0x44 DUP3 ADD MSTORE PUSH1 0x64 ADD JUMPDEST PUSH1 0x40 MLOAD DUP1 SWAP2 SUB SWAP1 REVERT JUMPDEST PUSH1 0xFF DUP1 DUP4 AND PUSH1 0x0 SWAP1 DUP2 MSTORE PUSH1 0x2 PUSH1 0x20 MSTORE PUSH1 0x40 SWAP1 KECCAK256 SLOAD AND ISZERO DUP1 ISZERO PUSH2 0x259 JUMPI POP PUSH1 0xFF DUP1 DUP3 AND PUSH1 0x0 SWAP1 DUP2 MSTORE PUSH1 0x2 PUSH1 0x20 MSTORE PUSH1 0x40 SWAP1 KECCAK256 SLOAD AND ISZERO JUMPDEST PUSH2 0x2A5 JUMPI PUSH1 0x40 MLOAD PUSH3 0x461BCD PUSH1 0xE5 SHL DUP2 MSTORE PUSH1 0x20 PUSH1 0x4 DUP3 ADD MSTORE PUSH1 0x14 PUSH1 0x24 DUP3 ADD MSTORE PUSH32 0x4361726420616C7265616479206D617463686564000000000000000000000000 PUSH1 0x44 DUP3 ADD MSTORE PUSH1 0x64 ADD PUSH2 0x21C JUMP JUMPDEST PUSH1 0xFF DUP3 DUP2 AND PUSH1 0x0 DUP2 DUP2 MSTORE PUSH1 0x1 PUSH1 0x20 SWAP1 DUP2 MSTORE PUSH1 0x40 DUP1 DUP4 KECCAK256 SLOAD DUP7 DUP7 AND DUP5 MSTORE SWAP3 DUP2 SWAP1 KECCAK256 SLOAD DUP2 MLOAD CALLER DUP2 MSTORE SWAP3 DUP4 ADD SWAP5 SWAP1 SWAP5 MSTORE SWAP2 DUP5 AND SWAP2 DUP2 ADD DUP3 SWAP1 MSTORE SWAP1 SWAP3 SWAP2 SWAP1 SWAP2 AND SWAP1 PUSH32 0xE1299F54CCE9BBBB7B050A7A2E071F3272E75F57D041E1CFB8CC88969634CF06 SWAP1 PUSH1 0x60 ADD PUSH1 0x40 MLOAD DUP1 SWAP2 SUB SWAP1 LOG1 PUSH1 0x40 DUP1 MLOAD CALLER DUP2 MSTORE PUSH1 0xFF DUP6 DUP2 AND PUSH1 0x20 DUP4 ADD MSTORE DUP4 AND DUP2 DUP4 ADD MSTORE SWAP1 MLOAD PUSH32 0xE1299F54CCE9BBBB7B050A7A2E071F3272E75F57D041E1CFB8CC88969634CF06 SWAP2 DUP2 SWAP1 SUB PUSH1 0x60 ADD SWAP1 LOG1 DUP1 PUSH1 0xFF AND DUP3 PUSH1 0xFF AND SUB PUSH2 0x3FD JUMPI PUSH1 0xFF DUP5 DUP2 AND PUSH1 0x0 SWAP1 DUP2 MSTORE PUSH1 0x2 PUSH1 0x20 SWAP1 DUP2 MSTORE PUSH1 0x40 DUP1 DUP4 KECCAK256 DUP1 SLOAD PUSH1 0x1 PUSH1 0xFF NOT SWAP2 DUP3 AND DUP2 OR SWAP1 SWAP3 SSTORE SWAP5 DUP9 AND DUP5 MSTORE DUP2 DUP5 KECCAK256 DUP1 SLOAD SWAP1 SWAP6 AND DUP2 OR SWAP1 SWAP5 SSTORE CALLER DUP4 MSTORE PUSH1 0x3 SWAP1 SWAP2 MSTORE DUP2 KECCAK256 DUP1 SLOAD SWAP1 SWAP2 SWAP1 PUSH2 0x3B0 SWAP1 DUP5 SWAP1 PUSH2 0x4DB JUMP JUMPDEST SWAP1 SWAP2 SSTORE POP POP PUSH1 0x40 DUP1 MLOAD CALLER DUP2 MSTORE PUSH1 0xFF DUP7 DUP2 AND PUSH1 0x20 DUP4 ADD MSTORE DUP6 AND DUP2 DUP4 ADD MSTORE SWAP1 MLOAD PUSH32 0x6AB153C624DD57C882FAA076A2E92B9BF6AB9FE4DD45AB9B4FECEBDFB705FBFA SWAP2 DUP2 SWAP1 SUB PUSH1 0x60 ADD SWAP1 LOG1 PUSH2 0x441 JUMP JUMPDEST PUSH1 0x40 DUP1 MLOAD CALLER DUP2 MSTORE PUSH1 0xFF DUP7 DUP2 AND PUSH1 0x20 DUP4 ADD MSTORE DUP6 AND DUP2 DUP4 ADD MSTORE SWAP1 MLOAD PUSH32 0xAC88ACA342AB714852637E72799DE8FC6CBE9636B0742F69E27F9628614D44E7 SWAP2 DUP2 SWAP1 SUB PUSH1 0x60 ADD SWAP1 LOG1 JUMPDEST POP POP POP POP JUMP JUMPDEST DUP1 CALLDATALOAD PUSH1 0xFF DUP2 AND DUP2 EQ PUSH2 0x458 JUMPI PUSH1 0x0 DUP1 REVERT JUMPDEST SWAP2 SWAP1 POP JUMP JUMPDEST PUSH1 0x0 PUSH1 0x20 DUP3 DUP5 SUB SLT ISZERO PUSH2 0x46F JUMPI PUSH1 0x0 DUP1 REVERT JUMPDEST PUSH2 0x478 DUP3 PUSH2 0x447 JUMP JUMPDEST SWAP4 SWAP3 POP POP POP JUMP JUMPDEST PUSH1 0x0 PUSH1 0x20 DUP3 DUP5 SUB SLT ISZERO PUSH2 0x491 JUMPI PUSH1 0x0 DUP1 REVERT JUMPDEST DUP2 CALLDATALOAD PUSH1 0x1 PUSH1 0x1 PUSH1 0xA0 SHL SUB DUP2 AND DUP2 EQ PUSH2 0x478 JUMPI PUSH1 0x0 DUP1 REVERT JUMPDEST PUSH1 0x0 DUP1 PUSH1 0x40 DUP4 DUP6 SUB SLT ISZERO PUSH2 0x4BB JUMPI PUSH1 0x0 DUP1 REVERT JUMPDEST PUSH2 0x4C4 DUP4 PUSH2 0x447 JUMP JUMPDEST SWAP2 POP PUSH2 0x4D2 PUSH1 0x20 DUP5 ADD PUSH2 0x447 JUMP JUMPDEST SWAP1 POP SWAP3 POP SWAP3 SWAP1 POP JUMP JUMPDEST DUP1 DUP3 ADD DUP1 DUP3 GT ISZERO PUSH2 0x4FC JUMPI PUSH4 0x4E487B71 PUSH1 0xE0 SHL PUSH1 0x0 MSTORE PUSH1 0x11 PUSH1 0x4 MSTORE PUSH1 0x24 PUSH1 0x0 REVERT JUMPDEST SWAP3 SWAP2 POP POP JUMP INVALID LOG2 PUSH5 0x6970667358 0x22 SLT KECCAK256 0x4F 0x21 0xBF 0xAC 0x28 0xCF REVERT OR PUSH13 0xA38FE591B0522962008A066473 GASLIMIT EXTDELEGATECALL PUSH22 0x83BD901BFC42B064736F6C634300081D003300000000 "},"gasEstimates":{"creation":{"codeDepositCost":"267200","executionCost":"infinite","totalCost":"infinite"},"external":{"cardTypes(uint8)":"2544","flipCards(uint8,uint8)":"infinite","getScore(address)":"2546","isMatched(uint8)":"2540","matchedCards(uint8)":"2509","owner()":"2404","playerScores(address)":"2529","totalCards()":"2396"}},"methodIdentifiers":{"cardTypes(uint8)":"a601eb54","flipCards(uint8,uint8)":"9d1ad17f","getScore(address)":"d47875d0","isMatched(uint8)":"1c4aedcb","matchedCards(uint8)":"1798f7f2","owner()":"8da5cb5b","playerScores(address)":"62550ae1","totalCards()":"e994c15d"}},"storageLayout":{"storage":[{"astId":3,"contract":"contracts/WonderCard.sol:MemoryCardGame","label":"owner","offset":0,"slot":"0","type":"t_address"},{"astId":6,"contract":"contracts/WonderCard.sol:MemoryCardGame","label":"totalCards","offset":20,"slot":"0","type":"t_uint8"},{"astId":10,"contract":"contracts/WonderCard.sol:MemoryCardGame","label":"cardTypes","offset":0,"slot":"1","type":"t_mapping(t_uint8,t_uint8)"},{"astId":14,"contract":"contracts/WonderCard.sol:MemoryCardGame","label":"matchedCards","offset":0,"slot":"2","type":"t_mapping(t_uint8,t_bool)"},{"astId":18,"contract":"contracts/WonderCard.sol:MemoryCardGame","label":"playerScores","offset":0,"slot":"3","type":"t_mapping(t_address,t_uint256)"}],"types":{"t_address":{"encoding":"inplace","label":"address","numberOfBytes":"20"},"t_bool":{"encoding":"inplace","label":"bool","numberOfBytes":"1"},"t_mapping(t_address,t_uint256)":{"encoding":"mapping","key":"t_address","label":"mapping(address => uint256)","numberOfBytes":"32","value":"t_uint256"},"t_mapping(t_uint8,t_bool)":{"encoding":"mapping","key":"t_uint8","label":"mapping(uint8 => bool)","numberOfBytes":"32","value":"t_bool"},"t_mapping(t_uint8,t_uint8)":{"encoding":"mapping","key":"t_uint8","label":"mapping(uint8 => uint8)","numberOfBytes":"32","value":"t_uint8"},"t_uint256":{"encoding":"inplace","label":"uint256","numberOfBytes":"32"},"t_uint8":{"encoding":"inplace","label":"uint8","numberOfBytes":"1"}}},"userdoc":{"kind":"user","methods":{},"version":1}}}}