{
  "_format": "hh-sol-artifact-1",
  "contractName": "MemoryCardGame",
  "sourceName": "contracts/WonderCard.sol",
  "abi": [
    {
      "inputs": [
        {
          "internalType": "uint8[]",
          "name": "_cardTypes",
          "type": "uint8[]"
        }
      ],
      "stateMutability": "nonpayable",
      "type": "constructor"
    },
    {
      "anonymous": false,
      "inputs": [
        {
          "indexed": false,
          "internalType": "address",
          "name": "player",
          "type": "address"
        },
        {
          "indexed": false,
          "internalType": "uint8",
          "name": "pos",
          "type": "uint8"
        },
        {
          "indexed": false,
          "internalType": "uint8",
          "name": "cardType",
          "type": "uint8"
        }
      ],
      "name": "CardRevealed",
      "type": "event"
    },
    {
      "anonymous": false,
      "inputs": [
        {
          "indexed": false,
          "internalType": "address",
          "name": "player",
          "type": "address"
        },
        {
          "indexed": false,
          "internalType": "uint8",
          "name": "pos1",
          "type": "uint8"
        },
        {
          "indexed": false,
          "internalType": "uint8",
          "name": "pos2",
          "type": "uint8"
        }
      ],
      "name": "MatchFound",
      "type": "event"
    },
    {
      "anonymous": false,
      "inputs": [
        {
          "indexed": false,
          "internalType": "address",
          "name": "player",
          "type": "address"
        },
        {
          "indexed": false,
          "internalType": "uint8",
          "name": "pos1",
          "type": "uint8"
        },
        {
          "indexed": false,
          "internalType": "uint8",
          "name": "pos2",
          "type": "uint8"
        }
      ],
      "name": "NoMatch",
      "type": "event"
    },
    {
      "inputs": [
        {
          "internalType": "uint8",
          "name": "",
          "type": "uint8"
        }
      ],
      "name": "cardTypes",
      "outputs": [
        {
          "internalType": "uint8",
          "name": "",
          "type": "uint8"
        }
      ],
      "stateMutability": "view",
      "type": "function"
    },
    {
      "inputs": [
        {
          "internalType": "uint8",
          "name": "pos1",
          "type": "uint8"
        },
        {
          "internalType": "uint8",
          "name": "pos2",
          "type": "uint8"
        }
      ],
      "name": "flipCards",
      "outputs": [],
      "stateMutability": "nonpayable",
      "type": "function"
    },
    {
      "inputs": [
        {
          "internalType": "address",
          "name": "player",
          "type": "address"
        }
      ],
      "name": "getScore",
      "outputs": [
        {
          "internalType": "uint256",
          "name": "",
          "type": "uint256"
        }
      ],
      "stateMutability": "view",
      "type": "function"
    },
    {
      "inputs": [
        {
          "internalType": "uint8",
          "name": "pos",
          "type": "uint8"
        }
      ],
      "name": "isMatched",
      "outputs": [
        {
          "internalType": "bool",
          "name": "",
          "type": "bool"
        }
      ],
      "stateMutability": "view",
      "type": "function"
    },
    {
      "inputs": [
        {
          "internalType": "uint8",
          "name": "",
          "type": "uint8"
        }
      ],
      "name": "matchedCards",
      "outputs": [
        {
          "internalType": "bool",
          "name": "",
          "type": "bool"
        }
      ],
      "stateMutability": "view",
      "type": "function"
    },
    {
      "inputs": [],
      "name": "owner",
      "outputs": [
        {
          "internalType": "address",
          "name": "",
          "type": "address"
        }
      ],
      "stateMutability": "view",
      "type": "function"
    },
    {
      "inputs": [
        {
          "internalType": "address",
          "name": "",
          "type": "address"
        }
      ],
      "name": "playerScores",
      "outputs": [
        {
          "internalType": "uint256",
          "name": "",
          "type": "uint256"
        }
      ],
      "stateMutability": "view",
      "type": "function"
    },
    {
      "inputs": [],
      "name": "totalCards",
      "outputs": [
        {
          "internalType": "uint8",
          "name": "",
          "type": "uint8"
        }
      ],
      "stateMutability": "view",
      "type": "function"
    }
  ],
  "bytecode": "0x60806040526000805460ff60a01b1916600160a21b17905534801561002357600080fd5b506040516107683803806107688339810160408190526100429161013c565b6000548151600160a01b90910460ff16146100965760405162461bcd60e51b815260206004820152601060248201526f125b9d985b1a590818d85c99081cd95d60821b604482015260640160405180910390fd5b600080546001600160a01b031916331781555b60005460ff600160a01b9091048116908216101561010957818160ff16815181106100d6576100d661020b565b60209081029190910181015160ff838116600090815260019384905260409020805460ff191691909216179055016100a9565b5050610221565b634e487b7160e01b600052604160045260246000fd5b805160ff8116811461013757600080fd5b919050565b60006020828403121561014e57600080fd5b81516001600160401b0381111561016457600080fd5b8201601f8101841361017557600080fd5b80516001600160401b0381111561018e5761018e610110565b604051600582901b90603f8201601f191681016001600160401b03811182821017156101bc576101bc610110565b6040529182526020818401810192908101878411156101da57600080fd5b6020850194505b83851015610200576101f285610126565b8152602094850194016101e1565b509695505050505050565b634e487b7160e01b600052603260045260246000fd5b610538806102306000396000f3fe608060405234801561001057600080fd5b50600436106100885760003560e01c80639d1ad17f1161005b5780639d1ad17f14610144578063a601eb5414610159578063d47875d01461018e578063e994c15d146101b757600080fd5b80631798f7f21461008d5780631c4aedcb146100c557806362550ae1146100eb5780638da5cb5b14610119575b600080fd5b6100b061009b36600461045d565b60026020526000908152604090205460ff1681565b60405190151581526020015b60405180910390f35b6100b06100d336600461045d565b60ff9081166000908152600260205260409020541690565b61010b6100f936600461047f565b60036020526000908152604090205481565b6040519081526020016100bc565b60005461012c906001600160a01b031681565b6040516001600160a01b0390911681526020016100bc565b6101576101523660046104a8565b6101cb565b005b61017c61016736600461045d565b60016020526000908152604090205460ff1681565b60405160ff90911681526020016100bc565b61010b61019c36600461047f565b6001600160a01b031660009081526003602052604090205490565b60005461017c90600160a01b900460ff1681565b8060ff168260ff16036102255760405162461bcd60e51b815260206004820152601560248201527f43616e6e6f7420666c69702073616d652063617264000000000000000000000060448201526064015b60405180910390fd5b60ff80831660009081526002602052604090205416158015610259575060ff80821660009081526002602052604090205416155b6102a55760405162461bcd60e51b815260206004820152601460248201527f4361726420616c7265616479206d617463686564000000000000000000000000604482015260640161021c565b60ff82811660008181526001602090815260408083205486861684529281902054815133815292830194909452918416918101829052909291909116907fe1299f54cce9bbbb7b050a7a2e071f3272e75f57d041e1cfb8cc88969634cf069060600160405180910390a16040805133815260ff858116602083015283168183015290517fe1299f54cce9bbbb7b050a7a2e071f3272e75f57d041e1cfb8cc88969634cf069181900360600190a18060ff168260ff16036103fd5760ff84811660009081526002602090815260408083208054600160ff1991821681179092559488168452818420805490951681179094553383526003909152812080549091906103b09084906104db565b90915550506040805133815260ff868116602083015285168183015290517f6ab153c624dd57c882faa076a2e92b9bf6ab9fe4dd45ab9b4fecebdfb705fbfa9181900360600190a1610441565b6040805133815260ff868116602083015285168183015290517fac88aca342ab714852637e72799de8fc6cbe9636b0742f69e27f9628614d44e79181900360600190a15b50505050565b803560ff8116811461045857600080fd5b919050565b60006020828403121561046f57600080fd5b61047882610447565b9392505050565b60006020828403121561049157600080fd5b81356001600160a01b038116811461047857600080fd5b600080604083850312156104bb57600080fd5b6104c483610447565b91506104d260208401610447565b90509250929050565b808201808211156104fc57634e487b7160e01b600052601160045260246000fd5b9291505056fea26469706673582212204f21bfac28cffd176ca38fe591b0522962008a06647345f97583bd901bfc42b064736f6c634300081d0033",
  "linkReferences": {},
  "deployedLinkReferences": {}
}